{
  "_format": "hh-sol-artifact-1",
  "contractName": "GameFactory",
  "sourceName": "contracts/GameFactory.sol",
  "abi": [
    {
      "inputs": [
        {
          "internalType": "address",
          "name": "initialRegistryAdmin",
          "type": "address"
        },
        {
          "internalType": "address",
          "name": "existingRegistry",
          "type": "address"
        }
      ],
      "stateMutability": "nonpayable",
      "type": "constructor"
    },
    {
      "anonymous": false,
      "inputs": [
        {
          "indexed": true,
          "internalType": "uint256",
          "name": "gameId",
          "type": "uint256"
        },
        {
          "indexed": true,
          "internalType": "address",
          "name": "operator",
          "type": "address"
        },
        {
          "indexed": false,
          "internalType": "address",
          "name": "toolNFT",
          "type": "address"
        },
        {
          "indexed": false,
          "internalType": "address",
          "name": "miningCore",
          "type": "address"
        },
        {
          "indexed": false,
          "internalType": "address",
          "name": "resourceToken",
          "type": "address"
        },
        {
          "indexed": false,
          "internalType": "address",
          "name": "rewardVault",
          "type": "address"
        },
        {
          "indexed": false,
          "internalType": "string",
          "name": "version",
          "type": "string"
        }
      ],
      "name": "GameCreated",
      "type": "event"
    },
    {
      "inputs": [],
      "name": "VERSION",
      "outputs": [
        {
          "internalType": "string",
          "name": "",
          "type": "string"
        }
      ],
      "stateMutability": "view",
      "type": "function"
    },
    {
      "inputs": [
        {
          "components": [
            {
              "internalType": "string",
              "name": "toolName",
              "type": "string"
            },
            {
              "internalType": "string",
              "name": "toolSymbol",
              "type": "string"
            },
            {
              "internalType": "string",
              "name": "resourceName",
              "type": "string"
            },
            {
              "internalType": "string",
              "name": "resourceSymbol",
              "type": "string"
            },
            {
              "internalType": "uint256",
              "name": "toolDuration",
              "type": "uint256"
            },
            {
              "internalType": "bool",
              "name": "activateOnMint",
              "type": "bool"
            },
            {
              "internalType": "bool",
              "name": "expiredTransferable",
              "type": "bool"
            },
            {
              "internalType": "uint256",
              "name": "initialRewards",
              "type": "uint256"
            },
            {
              "internalType": "uint256",
              "name": "dailyEmissionCap",
              "type": "uint256"
            },
            {
              "internalType": "uint256",
              "name": "seasonEmissionCap",
              "type": "uint256"
            },
            {
              "internalType": "uint256",
              "name": "emissionStart",
              "type": "uint256"
            },
            {
              "internalType": "uint256",
              "name": "emissionEnd",
              "type": "uint256"
            },
            {
              "internalType": "uint256",
              "name": "baseReward",
              "type": "uint256"
            },
            {
              "internalType": "uint256",
              "name": "cooldown",
              "type": "uint256"
            },
            {
              "internalType": "uint256",
              "name": "durabilityCost",
              "type": "uint256"
            },
            {
              "internalType": "uint256",
              "name": "levelMultiplierBps",
              "type": "uint256"
            },
            {
              "internalType": "uint256",
              "name": "powerMultiplierBps",
              "type": "uint256"
            },
            {
              "internalType": "uint256",
              "name": "upgradeCost",
              "type": "uint256"
            },
            {
              "internalType": "uint256",
              "name": "upgradePowerIncrease",
              "type": "uint256"
            },
            {
              "internalType": "uint256",
              "name": "upgradeDurabilityIncrease",
              "type": "uint256"
            }
          ],
          "internalType": "struct GameFactory.GameConfig",
          "name": "config",
          "type": "tuple"
        },
        {
          "components": [
            {
              "internalType": "uint256",
              "name": "toolType",
              "type": "uint256"
            },
            {
              "internalType": "uint256",
              "name": "price",
              "type": "uint256"
            },
            {
              "internalType": "uint256",
              "name": "maxSupply",
              "type": "uint256"
            },
            {
              "internalType": "uint256",
              "name": "power",
              "type": "uint256"
            },
            {
              "internalType": "uint256",
              "name": "durability",
              "type": "uint256"
            },
            {
              "internalType": "string",
              "name": "metadataURI",
              "type": "string"
            }
          ],
          "internalType": "struct GameFactory.ToolTypeConfig[]",
          "name": "toolTypes",
          "type": "tuple[]"
        }
      ],
      "name": "createGame",
      "outputs": [
        {
          "internalType": "uint256",
          "name": "gameId",
          "type": "uint256"
        },
        {
          "internalType": "address",
          "name": "toolNFT",
          "type": "address"
        },
        {
          "internalType": "address",
          "name": "miningCore",
          "type": "address"
        },
        {
          "internalType": "address",
          "name": "resourceToken",
          "type": "address"
        },
        {
          "internalType": "address",
          "name": "rewardVault",
          "type": "address"
        },
        {
          "internalType": "address",
          "name": "ruleModule",
          "type": "address"
        }
      ],
      "stateMutability": "nonpayable",
      "type": "function"
    },
    {
      "inputs": [],
      "name": "registry",
      "outputs": [
        {
          "internalType": "contract GameRegistry",
          "name": "",
          "type": "address"
        }
      ],
      "stateMutability": "view",
      "type": "function"
    },
    {
      "inputs": [],
      "name": "registryAdmin",
      "outputs": [
        {
          "internalType": "address",
          "name": "",
          "type": "address"
        }
      ],
      "stateMutability": "view",
      "type": "function"
    },
    {
      "inputs": [
        {
          "internalType": "uint256",
          "name": "gameId",
          "type": "uint256"
        },
        {
          "internalType": "enum GameRegistry.VerificationStatus",
          "name": "status",
          "type": "uint8"
        },
        {
          "internalType": "string",
          "name": "riskTag",
          "type": "string"
        }
      ],
      "name": "setGameStatus",
      "outputs": [],
      "stateMutability": "nonpayable",
      "type": "function"
    }
  ],
  "bytecode": "0x60c0346101405762007b7c906001600160401b0390601f38849003908101601f1916820190838211838310176100ee578083916040968794855283398101031261014057610058602061005183610145565b9201610145565b6001600160a01b0382811692909190831561010f5760a05216806101045750825191611cbe90818401908111848210176100ee578492849262005ebe843981523060208201520301906000f080156100e3576080525b51615d6490816200015a823960805181818161012d015281816107c30152610bdf015260a0518181816101010152610c240152f35b50513d6000823e3d90fd5b634e487b7160e01b600052604160045260246000fd5b9150506080526100ae565b855162461bcd60e51b815260206004820152600a60248201526941444d494e5f5a45524f60b01b6044820152606490fd5b600080fd5b51906001600160a01b03821682036101405756fe60808060405260043610156200001457600080fd5b600090813560e01c90816374c16b231462000c0e575080637b1039991462000bc757806391907451146200020a578063e2ea03c2146200009a5763ffa1ad74146200005e57600080fd5b346200009757806003193601126200009757620000936200007e62000c67565b60405191829160208352602083019062000c99565b0390f35b80fd5b503462000097576060366003190112620000975760243560058110156200020657604435906001600160401b0390818311620002025736602384011215620002025782600401359182116200020257366024838501011162000202576001600160a01b03927f000000000000000000000000000000000000000000000000000000000000000084163303620001c85784937f000000000000000000000000000000000000000000000000000000000000000016803b15620001c45762000193938580946040519687958694859363717501e160e11b85526004356004860152602485015260606044850152602460648501920162000d23565b03925af18015620001b957620001a65750f35b620001b19062000c53565b620000975780f35b6040513d84823e3d90fd5b8480fd5b60405162461bcd60e51b81526020600482015260126024820152712727aa2fa922a3a4a9aa292cafa0a226a4a760711b6044820152606490fd5b8380fd5b5080fd5b5034620000975760031960403682011262000206576001600160401b03600435116200020657610280906004353603011262000097576024356001600160401b03811162000206573660238201121562000206576001600160401b038160040135116200020657366024826004013560051b83010111620002065780600401351562000b9257620002a060048035018062000cdb565b90620002b760246004350160043560040162000cdb565b9190620002c960a46004350162000d15565b92620002da60c46004350162000d15565b926040519586611eed8101106001600160401b03611eed8901111762000b7e57916200032487969594926200033b94611eed62003e428a3960c0611eed8a01818152019162000d23565b91611eed870183036020611eed8901015262000d23565b91608460043501356040611eed8601015215156060611eed8501015215156080611eed840101523060a0611eed84010152039083f0908115620001b9576200038e60446004350160043560040162000cdb565b90620003a560646004350160043560040162000cdb565b90916040519384610f918101106001600160401b03610f918701111762000b6a5791620003ee8594926200040594610f916200218b88396060610f918801818152019162000d23565b91610f91850183036020610f918701015262000d23565b306040610f9184010152039084f08015620009605760405180610a208101106001600160401b03610a208301111762000b5657610a206200311c823960043560e4810135610a2083019081526101048201356020820152610124820135604082015261014482013560608201526101649091013560808201523060a082015281900360c0019085f090811562000b4b57604051806103068101106001600160401b036103068301111762000b375761030662003b3c823960043561018481013561030683019081526101a482013560208201526101c482013560408201526101e4820135606082015261020490910135608082015281900360a0019086f092831562000b2c576040518061140c8101106001600160401b0361140c8301111762000b185761140c62000d7f82396001600160a01b0386811661140c8301908152848216602082015285821660408201529086166060820152600435610224810135608083015261024481013560a0830152610264013560c08201523360e0820152819003610100019087f090811562000b0d576001600160a01b0386163b15620008ff57604051633c696f2560e11b81526001600160a01b03838116600483015288908290602490829084908c165af1801562000b025762000aec575b506001600160a01b0383163b15620008ff57604051637e51dad560e11b81526001600160a01b03838116600483015288919082908290602490829084908a165af18015620001b95762000ad4575b50506001600160a01b0384163b15620008ff57604051633c696f2560e11b81526001600160a01b03838116600483015288919082908290602490829084908b165af18015620001b95762000abc575b50805b8260040135811062000983575050506001600160a01b0385163b15620009445760405163f2fde38b60e01b80825233600483015287918281602481836001600160a01b038d165af1908115620009605783916200096b575b50506001600160a01b0384163b1562000206576040518181523360048201528281602481836001600160a01b038a165af19081156200096057839162000948575b50506001600160a01b0385163b1562000206576040519081523360048201528181602481836001600160a01b038a165af18015620001b9576200092c575b5050620007be9460206200076c62000c67565b6040516343fbd86f60e11b81523360048201526001600160a01b038481166024830152858116604483015286811660648301528716608482015260c060a482015297889182919060c483019062000c99565b03818a7f00000000000000000000000000000000000000000000000000000000000000006001600160a01b03165af195861562000921578796620008b5575b5060c096506200080c62000c67565b604080516001600160a01b038481168252858116602083015286811692820192909252908616606082015260a060808201819052339289927f820cc5554749f87784a94276965e9ea0384b0228c2af3d51cd80d06752ab5aab929091829162000879919083019062000c99565b0390a3604080519687526001600160a01b03918216602088015291811691860191909152908116606085015290811660808401521660a0820152f35b90955060203d60201162000919575b601f8101601f191682016001600160401b038111838210176200090357602091839160405281010312620008ff5760c09650519438620007fd565b8680fd5b634e487b7160e01b600052604160045260246000fd5b503d620008c4565b6040513d89823e3d90fd5b620009379062000c53565b6200094457853862000759565b8580fd5b620009539062000c53565b620002065781386200071b565b6040513d85823e3d90fd5b620009769062000c53565b62000206578138620006da565b620009978184600401356024860162000d44565b356020620009ae8386600401356024880162000d44565b0135906040620009c78487600401356024890162000d44565b0135916060620009e085886004013560248a0162000d44565b0135916080620009f986896004013560248b0162000d44565b0135928c62000a2062000a15888b6004013560248d0162000d44565b60a081019062000cdb565b90916001600160a01b03163b1562000ab857889562000a7693604051988997889763757721d760e11b89526004890152602488015260448701526064860152608485015260c060a485015260c484019162000d23565b0381836001600160a01b038e165af19081156200096057839162000aa0575b505060010162000682565b62000aab9062000c53565b6200020657813862000a95565b8880fd5b62000ac79062000c53565b620008ff5786386200067f565b62000adf9062000c53565b620008ff57863862000630565b62000afa9097919762000c53565b9538620005e2565b6040513d8a823e3d90fd5b6040513d88823e3d90fd5b634e487b7160e01b87526041600452602487fd5b6040513d87823e3d90fd5b634e487b7160e01b86526041600452602486fd5b6040513d86823e3d90fd5b634e487b7160e01b85526041600452602485fd5b634e487b7160e01b88526041600452602488fd5b634e487b7160e01b89526041600452602489fd5b60405162461bcd60e51b815260206004820152600d60248201526c4e4f5f544f4f4c5f545950455360981b6044820152606490fd5b503462000097578060031936011262000097576040517f00000000000000000000000000000000000000000000000000000000000000006001600160a01b03168152602090f35b90503462000206578160031936011262000206577f00000000000000000000000000000000000000000000000000000000000000006001600160a01b03168152602090f35b6001600160401b0381116200090357604052565b60405190604082018281106001600160401b03821117620009035760405260058252640302e312e360dc1b6020830152565b919082519283825260005b84811062000cc6575050826000602080949584010152601f8019910116010190565b60208183018101518483018201520162000ca4565b903590601e198136030182121562000d1057018035906001600160401b03821162000d105760200191813603831362000d1057565b600080fd5b35801515810362000d105790565b908060209392818452848401376000828201840152601f01601f1916010190565b919081101562000d685760051b8101359060be198136030182121562000d10570190565b634e487b7160e01b600052603260045260246000fdfe60e0346200028f57601f6200140c38819003918201601f191683019291906001600160401b0384118385101762000294578161010092849260409687528339810103126200028f576200005281620002aa565b60209062000062828401620002aa565b9162000070858501620002aa565b916200007f60608601620002aa565b60808601519360a08701519560e060c089015198620000a860018060a01b0392839201620002aa565b169182156200025e57600080546001600160a01b0319908116851782558c519097909484927f8be0079c531659141344cd1fd0a4f28419497f9722a3daafe3b4186f6b6457e08180a3169283156200023057508116928315620001fc578116938415620001cb57169485156200019b575060805260a05260c05260015416176001556002556003556004555161114c9081620002c08239608051818181610220015281816102e7015281816108e001528181610a7901528181610e9801526110b7015260a051818181610283015281816103d20152610bce015260c05181818161058901528181610b090152610f350152f35b6064908a519062461bcd60e51b82526004820152600a60248201526952554c45535f5a45524f60b01b6044820152fd5b8a5162461bcd60e51b815260048101889052600a6024820152695641554c545f5a45524f60b01b6044820152606490fd5b8a5162461bcd60e51b815260048101889052600d60248201526c5245534f555243455f5a45524f60981b6044820152606490fd5b62461bcd60e51b8152600481018890526009602482015268544f4f4c5f5a45524f60b81b6044820152606490fd5b8a5162461bcd60e51b815260048101889052600a6024820152694f574e45525f5a45524f60b01b6044820152606490fd5b600080fd5b634e487b7160e01b600052604160045260246000fd5b51906001600160a01b03821682036200028f5756fe6040608081526004908136101561001557600080fd5b600091823560e01c806311e5f5001461077757806312f7086c1461075057806316c38b3c146106d857806335e0cb301461065f5780633950c1da146105b85780633a2c6777146105745780634d474898146105545780634e4caa051461052b5780635aa50c8f1461050e5780635c975abb146104e7578063606a89aa146102b257806373d1a1401461026e57806373e0bf1b1461024f578063789ac4a41461020b5780638da5cb5b146101e35780639010fef5146101c4578063b05edc98146101975763f2fde38b146100e757600080fd5b34610193576020366003190112610193576001600160a01b0381358181169391929084900361018f578454928316916101218333146107f4565b841561015f57505082907f8be0079c531659141344cd1fd0a4f28419497f9722a3daafe3b4186f6b6457e08580a36001600160a01b03191617815580f35b906020606492519162461bcd60e51b8352820152600a6024820152694f574e45525f5a45524f60b01b6044820152fd5b8480fd5b8280fd5b5050346101c057816003193601126101c05760015490516001600160a01b039091168152602090f35b5080fd5b5050346101c057816003193601126101c0576020906003549051908152f35b5050346101c057816003193601126101c057905490516001600160a01b039091168152602090f35b5050346101c057816003193601126101c057517f00000000000000000000000000000000000000000000000000000000000000006001600160a01b03168152602090f35b5050346101c057816003193601126101c0576020906002549051908152f35b5050346101c057816003193601126101c057517f00000000000000000000000000000000000000000000000000000000000000006001600160a01b03168152602090f35b509190346101c057602090816003193601126101935780516331a9108f60e11b815284358186018190526001600160a01b03957f000000000000000000000000000000000000000000000000000000000000000087169490928181602481895afa9081156104b057906103309188916104ba575b50881633146109eb565b83516382afd23b60e01b81528381018390528181602481895afa9081156104b0578791610483575b50156104565750849560025490816103d0575b505060035493825492813b156103cc5786606492819587519889968795630d86ea5d60e31b8752860152602485015260448401525af19081156103c357506103b05750f35b6103b99061082c565b6103c05780f35b80fd5b513d84823e3d90fd5b8680fd5b7f00000000000000000000000000000000000000000000000000000000000000001690813b156103cc57845163079cc67960e41b815233858201908152602081019290925297879289928390036040019183915af1801561044c57610438575b85859661036b565b9390946104449061082c565b928490610430565b83513d87823e3d90fd5b9050606492519162461bcd60e51b83528201526008602482015267494e41435449564560c01b6044820152fd5b6104a39150823d84116104a9575b61049b8183610856565b810190610a28565b38610358565b503d610491565b85513d89823e3d90fd5b6104da9150833d85116104e0575b6104d28183610856565b8101906109cc565b38610326565b503d6104c8565b5050346101c057816003193601126101c05760209060ff60015460a01c1690519015158152f35b503461019357826003193601126101935760209250549051908152f35b5091346103c05760203660031901126103c0575061054b60209235610e57565b90519015158152f35b8382346101c05760203660031901126101c0576105719035610a40565b80f35b5050346101c057816003193601126101c057517f00000000000000000000000000000000000000000000000000000000000000006001600160a01b03168152602090f35b50346101935760203660031901126101935780356001600160a01b03818116939184900361018f576105ee9085541633146107f4565b821561062f575050600180546001600160a01b031916821790557f0da2a2344636f7ca62076e0942f93eb1016e5c6615fb5bddb65d32c4ae5a939f8280a280f35b906020606492519162461bcd60e51b8352820152600a60248201526952554c45535f5a45524f60b01b6044820152fd5b8382346101c05760203660031901126101c057803567ffffffffffffffff918282116106d457366023830112156106d4578101359182116101935760249060053660248560051b8401011161018f57845b8481106106bb578580f35b806106ce85600193851b86010135610a40565b016106b0565b8380fd5b5034610193576020366003190112610193573590811515809203610193577f0e2fb031ee032dc02d8011dc50b816eb450cf856abd8261680dac74f72165bd29160209161072f60018060a01b0386541633146107f4565b6001805460ff60a01b191660a084901b60ff60a01b1617905551908152a180f35b5091346103c05760203660031901126103c05750610770602092356108b8565b9051908152f35b509034610193576060366003190112610193578135906107a160018060a01b0385541633146107f4565b6002548151908152602081018390526a1d5c19dc98591950dbdcdd60aa1b917fce249fa99ad401266b8ad33f2f542b9a99ff1fda278b1588f7090f55c627e73a91a2600255602435600355604435905580f35b156107fb57565b60405162461bcd60e51b81526020600482015260096024820152682727aa2fa7aba722a960b91b6044820152606490fd5b67ffffffffffffffff811161084057604052565b634e487b7160e01b600052604160045260246000fd5b90601f8019910116810190811067ffffffffffffffff82111761084057604052565b9190826101009103126108b35781519160208101519160408201519160608101519160808201519160a08101519160e060c083015192015190565b600080fd5b60405163bc60c31d60e01b81526004810191909152610100906001600160a01b0382826024817f000000000000000000000000000000000000000000000000000000000000000085165afa9182156109815760009360009361098d575b5050906044602092600154169360405194859384926309f6842360e11b8452600484015260248301525afa90811561098157600091610952575090565b90506020813d602011610979575b8161096d60209383610856565b810103126108b3575190565b3d9150610960565b6040513d6000823e3d90fd5b604494506020935090816109b592903d106109c5575b6109ad8183610856565b810190610878565b5098955050925050509392610915565b503d6109a3565b908160209103126108b357516001600160a01b03811681036108b35790565b156109f257565b60405162461bcd60e51b815260206004820152600e60248201526d2727aa2faa27a7a62fa7aba722a960911b6044820152606490fd5b908160209103126108b3575180151581036108b35790565b6001549060ff60009260a01c16610e2957604080516331a9108f60e11b815260048082018490526001600160a01b0392916020916024917f00000000000000000000000000000000000000000000000000000000000000008616919084818581865afa908115610d095790610ac0918a91610e0c575b50871633146109eb565b84516382afd23b60e01b815281810188905284818581865afa908115610d09578991610def575b5015610daa575b610af787610e57565b15610d7a57610b05876108b8565b95807f000000000000000000000000000000000000000000000000000000000000000016803b15610d3557865163cc47a40b60e01b815233848201908152602081018a905290918b9183919082908490829060400103925af18015610d2b57908a91610d66575b5050818582600154168851928380926309c38f8760e11b82525afa908115610d2b578a91610d39575b50833b15610d355786519063d251bf8d60e01b8252898483015285820152898160448183885af18015610d2b57908a91610d17575b50507f000000000000000000000000000000000000000000000000000000000000000016803b15610d135785516340c10f1960e01b8152338382019081526020810189905290918a9183919082908490829060400103925af18015610d0957889392918a91610cea575b50508551938493849263bc60c31d60e01b84528301526101009384935afa968715610cdf5796610c93575b5050907fb641e07763e6dadc2d8c70f7c5da177ddbfcef39e0ecb06e7657162b314ba21591815193845242908401523392a4565b7fb641e07763e6dadc2d8c70f7c5da177ddbfcef39e0ecb06e7657162b314ba215939296509081610ccf92903d106109c5576109ad8183610856565b5050505050505094909138610c5f565b8451903d90823e3d90fd5b610cf7919293945061082c565b610d05579086918838610c34565b8780fd5b86513d8b823e3d90fd5b8880fd5b610d209061082c565b610d13578838610bca565b87513d8c823e3d90fd5b8980fd5b90508581813d8311610d5f575b610d508183610856565b810103126108b3575138610b95565b503d610d46565b610d6f9061082c565b610d13578838610b6c565b845162461bcd60e51b8152908101849052600b818401526a43414e4e4f545f4d494e4560a81b6044820152606490fd5b813b15610d055784516305fb1b1760e51b81528181018890528881858183875af18015610d0957610ddc575b50610aee565b610de89098919861082c565b9638610dd6565b610e069150853d87116104a95761049b8183610856565b38610ae7565b610e239150863d88116104e0576104d28183610856565b38610ab6565b60405162461bcd60e51b815260206004820152600660248201526514105554d15160d21b6044820152606490fd5b60015460ff8160a01c16801561109a575b611093576040805163bc60c31d60e01b81526004810184905290926001600160a01b0392610100929083826024817f000000000000000000000000000000000000000000000000000000000000000089165afa91821561101557908591600095600094611065575b5050169085516309c38f8760e11b81526020948582600481875afa91821561105a5760009261102b575b501061102057838115159283610f97575b505050610f8e57610f1c82916108b8565b602485518095819363b85d337360e01b835260048301527f0000000000000000000000000000000000000000000000000000000000000000165afa928315610f845750600092610f6b57505090565b610f819250803d106104a95761049b8183610856565b90565b513d6000823e3d90fd5b50505050600090565b8751633c3d045360e11b8152929350829060049082905afa90811561101557600091610fe8575b508101809111610fd2574210388381610f0b565b634e487b7160e01b600052601160045260246000fd5b90508381813d831161100e575b610fff8183610856565b810103126108b3575138610fbe565b503d610ff5565b86513d6000823e3d90fd5b505050505050600090565b9091508581813d8311611053575b6110438183610856565b810103126108b357519038610efa565b503d611039565b88513d6000823e3d90fd5b6110819396508091929450903d106109c5576109ad8183610856565b99965050935050505093913880610ed0565b5050600090565b506040516382afd23b60e01b8152600481018390526020816024817f00000000000000000000000000000000000000000000000000000000000000006001600160a01b03165afa908115610981576000916110f7575b5015610e68565b611110915060203d6020116104a95761049b8183610856565b386110f056fea2646970667358221220ad5e1b24db44d5ba9f1000dfde50b0652df0d782d7c97492a30f9dba5e09c8db64736f6c63430008180033608060405234620003955762000f91803803806200001d816200039a565b928339810190606081830312620003955780516001600160401b03919082811162000395578362000050918301620003d6565b6020938483015184811162000395576040916200006f918501620003d6565b9201516001600160a01b0381169290839003620003955782156200036357600080546001600160a01b0319168417815592837f8be0079c531659141344cd1fd0a4f28419497f9722a3daafe3b4186f6b6457e08180a38151928484116200026d576001938454938585811c9516801562000358575b8886101462000344578190601f95868111620002f1575b5088908683116001146200028d57849262000281575b5050600019600383901b1c191690851b1784555b81519485116200026d576002548481811c9116801562000262575b878210146200024e5783811162000205575b50859285116001146200019c57939450849291908362000190575b50501b916000199060031b1c1916176002555b604051610b489081620004498239f35b0151925038806200016d565b6002815285812093958591601f198316915b88838310620001ea5750505010620001d0575b505050811b0160025562000180565b015160001960f88460031b161c19169055388080620001c1565b858701518855909601959485019487935090810190620001ae565b600282528682208480880160051c82019289891062000244575b0160051c019085905b8281106200023857505062000152565b83815501859062000228565b925081926200021f565b634e487b7160e01b82526022600452602482fd5b90607f169062000140565b634e487b7160e01b81526041600452602490fd5b01519050388062000111565b8785528985208894509190601f198416865b8c828210620002da5750508411620002c0575b505050811b01845562000125565b015160001960f88460031b161c19169055388080620002b2565b8385015186558b979095019493840193016200029f565b9091508684528884208680850160051c8201928b86106200033a575b918991869594930160051c01915b8281106200032b575050620000fb565b8681558594508991016200031b565b925081926200030d565b634e487b7160e01b83526022600452602483fd5b94607f1694620000e4565b60405162461bcd60e51b815260048101869052600a6024820152694f574e45525f5a45524f60b01b6044820152606490fd5b600080fd5b6040519190601f01601f191682016001600160401b03811183821017620003c057604052565b634e487b7160e01b600052604160045260246000fd5b919080601f84011215620003955782516001600160401b038111620003c0576020906200040c601f8201601f191683016200039a565b92818452828287010111620003955760005b8181106200043457508260009394955001015290565b85810183015184820184015282016200041e56fe6080604081815260048036101561001557600080fd5b600092833560e01c90816306fdde03146108065750806307546172146107df578063095ea7b31461076e57806318160ddd1461074f57806323b872dd14610683578063313ce5671461066757806340c10f191461057357806370a082311461053b57806379cc6790146103dd5780638da5cb5b146103b557806395d89b4114610291578063a9059cbb14610260578063dd62ed3e14610213578063f2fde38b1461016f5763fca3b5aa146100c857600080fd5b3461016b57602036600319011261016b576100e1610946565b83546001600160a01b0391906100fa9083163314610a15565b1691821561013a575080546001600160a01b031916821790557fad0f299ec81a386c98df0ac27dae11dd020ed1b56963c53a7292e7a3a314539a8280a280f35b906020606492519162461bcd60e51b8352820152600b60248201526a4d494e5445525f5a45524f60a81b6044820152fd5b8280fd5b503461016b57602036600319011261016b57610189610946565b8354916001600160a01b03808416926101a3338514610a15565b169384156101e357505082907f8be0079c531659141344cd1fd0a4f28419497f9722a3daafe3b4186f6b6457e08580a36001600160a01b03191617815580f35b906020606492519162461bcd60e51b8352820152600a6024820152694f574e45525f5a45524f60b01b6044820152fd5b50503461025c578060031936011261025c5780602092610231610946565b610239610961565b6001600160a01b0391821683526006865283832091168252845220549051908152f35b5080fd5b50503461025c578060031936011261025c5760209061028a610280610946565b6024359033610a83565b5160018152f35b5091903461025c578160031936011261025c578051908260025460018160011c90600183169283156103ab575b60209384841081146103985783885290811561037c5750600114610326575b505050829003601f01601f191682019267ffffffffffffffff841183851017610313575082918261030f9252826108fd565b0390f35b634e487b7160e01b815260418552602490fd5b600287529192508591837f405787fa12a823e0f2b7631cc41b3ba8828b3321ca811111fa75cd3aa3bb5ace5b83851061036857505050508301013880806102dd565b805488860183015293019284908201610352565b60ff1916878501525050151560051b84010190503880806102dd565b634e487b7160e01b895260228a52602489fd5b91607f16916102be565b50503461025c578160031936011261025c57905490516001600160a01b039091168152602090f35b50503461025c578060031936011261025c577f26d3b09d0802b7851385ae1dcce0df66377e824c198b3ebb00cde00e88dc7883610418610946565b6001600160a01b031691602435338490036104a6575b838552600560205261044581838720541015610a4d565b838552600560205281852061045b8282546109af565b9055610469816003546109af565b60035584847fddf252ad1be2c89b69c2b068fc378daa952ba7f163c4a11628f55a4df523b3ef60208551858152a38151908582526020820152a280f35b8385526020600681528286203387528152828620546104c783821015610977565b82600182016104d9575b50505061042e565b6104e2916109af565b85875260068252838720338852825283872055848652600681528286203387528152847f8c5be1e5ebec7d5bd14f71427d1e84f3dd0314c0f7b2291e5b200ac8c7c3b925848820549285519384523393a33880826104d1565b50503461025c57602036600319011261025c5760209181906001600160a01b03610563610946565b1681526005845220549051908152f35b50903461016b578060031936011261016b5761058d610946565b8254602435936001600160a01b03929183163303610637575016917fd60edc2156773608026508b8e3400073f61d54f2c9941960114ec51a0ee4f61091906105d68415156109d2565b6105e281600354610a08565b60035583855260056020528185206105fb828254610a08565b905583857fddf252ad1be2c89b69c2b068fc378daa952ba7f163c4a11628f55a4df523b3ef60208551858152a38151908582526020820152a280f35b606490602085519162461bcd60e51b8352820152600a6024820152692727aa2fa6a4a72a22a960b11b6044820152fd5b50503461025c578160031936011261025c576020905160128152f35b50503461025c57606036600319011261025c5761028a6106a1610946565b6106a9610961565b6044359160018060a01b03811680875285602097600689528181203382528952818120546106d987821015610977565b86600182016106ed575b5050505050610a83565b6106f6916109af565b83825260068a528282203383528a528282205582815260068952818120338252895220549086519182527f8c5be1e5ebec7d5bd14f71427d1e84f3dd0314c0f7b2291e5b200ac8c7c3b925883393a338858180866106e3565b50503461025c578160031936011261025c576020906003549051908152f35b50503461025c578060031936011261025c576020918161078c610946565b91602435918291338152600687528181209460018060a01b0316948582528752205582519081527f8c5be1e5ebec7d5bd14f71427d1e84f3dd0314c0f7b2291e5b200ac8c7c3b925843392a35160018152f35b503461016b578260031936011261016b575490516001600160a01b03909116815260209150f35b849150833461016b578260031936011261016b578260018054908160011c90600183169283156108f3575b6020938484108114610398578388529081156108d7575060011461088157505050829003601f01601f191682019267ffffffffffffffff841183851017610313575082918261030f9252826108fd565b600187529192508591837fb10e2d527612073b26eecdfd717e6a320cf44b4afac2b0732d9fcbe2b7fa0cf65b8385106108c357505050508301018580806102dd565b8054888601830152930192849082016108ad565b60ff1916878501525050151560051b84010190508580806102dd565b91607f1691610831565b6020808252825181830181905290939260005b82811061093257505060409293506000838284010152601f8019910116010190565b818101860151848201604001528501610910565b600435906001600160a01b038216820361095c57565b600080fd5b602435906001600160a01b038216820361095c57565b1561097e57565b60405162461bcd60e51b8152602060048201526009602482015268414c4c4f57414e434560b81b6044820152606490fd5b919082039182116109bc57565b634e487b7160e01b600052601160045260246000fd5b156109d957565b60405162461bcd60e51b8152602060048201526007602482015266544f5f5a45524f60c81b6044820152606490fd5b919082018092116109bc57565b15610a1c57565b60405162461bcd60e51b81526020600482015260096024820152682727aa2fa7aba722a960b91b6044820152606490fd5b15610a5457565b60405162461bcd60e51b815260206004820152600760248201526642414c414e434560c81b6044820152606490fd5b6001600160a01b0391821692917fddf252ad1be2c89b69c2b068fc378daa952ba7f163c4a11628f55a4df523b3ef9160209190610ac18615156109d2565b16926040600085815260058452610add83838320541015610a4d565b85815260058452818120610af28482546109af565b90558681526005845220610b07828254610a08565b9055604051908152a356fea264697066735822122074b30f2a47c8889cbd584d8f78693cc1499c4ead608339889c06f61e7d366c6f64736f6c6343000818003360803461019e57601f610a2038819003918201601f191683019291906001600160401b038411838510176101a3578160c0928492604096875283398101031261019e5780516020820151838301519060608401519260a0608086015195015160018060a01b03811680910361019e57801561016d57600080546001600160a01b03191682178155875191907f8be0079c531659141344cd1fd0a4f28419497f9722a3daafe3b4186f6b6457e08180a3821561013e5750821561010c57838511156100df576003556001556002556004556005555161086690816101ba8239f35b855162461bcd60e51b815260206004820152600660248201526557494e444f5760d01b6044820152606490fd5b855162461bcd60e51b815260206004820152600b60248201526a534541534f4e5f5a45524f60a81b6044820152606490fd5b62461bcd60e51b815260206004820152600a6024820152694441494c595f5a45524f60b01b6044820152606490fd5b865162461bcd60e51b815260206004820152600a6024820152694f574e45525f5a45524f60b01b6044820152606490fd5b600080fd5b634e487b7160e01b600052604160045260246000fdfe6080604081815260048036101561001557600080fd5b600092833560e01c90816305956175146107155750806316c38b3c146106a75780631a8e0b7614610688578063513da9481461066b5780635c975abb1461064757806378d2de4a146105915780638368909c146105725780638b17f9c5146105455780638c6478cc146104985780638d40c966146104715780638da5cb5b14610449578063a61645841461039a578063afb62e561461037b578063b85d33731461034f578063ca1d209d146102e7578063cc47a40b146101b3578063d6d070c3146101905763f2fde38b146100e957600080fd5b3461018c57602036600319011261018c57610102610731565b8354916001600160a01b038084169261011c33851461074c565b1693841561015c57505082907f8be0079c531659141344cd1fd0a4f28419497f9722a3daafe3b4186f6b6457e08580a36001600160a01b03191617815580f35b906020606492519162461bcd60e51b8352820152600a6024820152694f574e45525f5a45524f60b01b6044820152fd5b8280fd5b5050346101af57816003193601126101af576020906001549051908152f35b5080fd5b50903461018c578060031936011261018c576101cd610731565b600654602435936001600160a01b0393909160081c841633036102b9576101f3856107a7565b156102875760035462015180420492868203918211610274575091606093917fbf47331fb9c7f89128f0506399ea66e8d250420422a63370d8c85501d37d45fe9593600355818852600760205280882061024e888254610784565b905561025c87600854610784565b9182600855815197885260208801528601521692a280f35b634e487b7160e01b885260119052602487fd5b906020606492519162461bcd60e51b8352820152600c60248201526b0454d495353494f4e5f4341560a41b6044820152fd5b906020606492519162461bcd60e51b835282015260086024820152674e4f545f434f524560c01b6044820152fd5b50903461018c57602036600319011261018c577f4f0775335d78e0bfaf0bd965fe6088dbd28697f9c0590c66383d5314bea5c9e5913561033160018060a01b03855416331461074c565b61033d81600354610784565b8060035582519182526020820152a180f35b509134610378576020366003190112610378575061036f602092356107a7565b90519015158152f35b80fd5b5050346101af57816003193601126101af576020906003549051908152f35b50903461018c57602036600319011261018c578135916103c460018060a01b03855416331461074c565b821561041957507fce249fa99ad401266b8ad33f2f542b9a99ff1fda278b1588f7090f55c627e73a90600254928060025581519384526020840152700736561736f6e456d697373696f6e43617607c1b92a280f35b6020606492519162461bcd60e51b8352820152600b60248201526a534541534f4e5f5a45524f60a81b6044820152fd5b5050346101af57816003193601126101af57905490516001600160a01b039091168152602090f35b503461018c57602036600319011261018c5760209282913581526007845220549051908152f35b50903461018c57602036600319011261018c578135916104c260018060a01b03855416331461074c565b821561051657507fce249fa99ad401266b8ad33f2f542b9a99ff1fda278b1588f7090f55c627e73a906001549280600155815193845260208401526f06461696c79456d697373696f6e4361760841b92a280f35b6020606492519162461bcd60e51b8352820152600a6024820152694441494c595f5a45524f60b01b6044820152fd5b5050346101af57816003193601126101af57600654905160089190911c6001600160a01b03168152602090f35b5050346101af57816003193601126101af576020906005549051908152f35b503461018c57602036600319011261018c576105ab610731565b9060018060a01b036105c181865416331461074c565b821692831561061857505060068054610100600160a81b03191660089290921b610100600160a81b03169190911790557fa8ed10b2206050f9f388dcf296e5fba3c3ede264d5202249d669bf09b75a92b98280a280f35b906020606492519162461bcd60e51b83528201526009602482015268434f52455f5a45524f60b81b6044820152fd5b5050346101af57816003193601126101af5760209060ff6006541690519015158152f35b503461018c578260031936011261018c5760209250549051908152f35b5050346101af57816003193601126101af576020906008549051908152f35b503461018c57602036600319011261018c57359081151580920361018c577f0e2fb031ee032dc02d8011dc50b816eb450cf856abd8261680dac74f72165bd2916020916106fe60018060a01b03865416331461074c565b60ff196006541660ff83161760065551908152a180f35b8490346101af57816003193601126101af576020906002548152f35b600435906001600160a01b038216820361074757565b600080fd5b1561075357565b60405162461bcd60e51b81526020600482015260096024820152682727aa2fa7aba722a960b91b6044820152606490fd5b9190820180921161079157565b634e487b7160e01b600052601160045260246000fd5b60ff600654168015610825575b801561081a575b6108145780600354101590816107ea575b816107d5575090565b6107e29150600854610784565b600254101590565b9050620151804204600052600760205261080981604060002054610784565b6001541015906107cc565b50600090565b5060055442116107bb565b5060045442106107b456fea2646970667358221220a6c71ad58d115c2d8e4daba4f6ee370ebefe8f6efc6d9389a9e06fe34997595364736f6c634300081800336080346100eb57601f61030638819003918201601f19168301916001600160401b038311848410176100f05780849260a0946040528339810103126100eb578051906020810151604082015190608060608401519301519380156100b8578215610081576000556001556002556003556004556040516101ff90816101078239f35b60405162461bcd60e51b815260206004820152600f60248201526e4455524142494c4954595f5a45524f60881b6044820152606490fd5b60405162461bcd60e51b815260206004820152600b60248201526a5245574152445f5a45524f60a81b6044820152606490fd5b600080fd5b634e487b7160e01b600052604160045260246000fdfe608060408181526004918236101561001657600080fd5b600092833560e01c91826313871f0e146101845750816313ed0846146100e657816376ad03bc146100c9578163787a08a6146100aa578163ee87bad514610088575063f316a9fb1461006757600080fd5b346100845781600319360112610084576020906003549051908152f35b5080fd5b9050346100a657826003193601126100a65760209250549051908152f35b8280fd5b5050346100845781600319360112610084576020906001549051908152f35b505034610084578160031936011261008457602091549051908152f35b828434610181578160031936011261018157602435610107845485356101a0565b916127109283019182841161016e57600019810190811161016e5760035461012e916101a0565b830180931161015b576020939261014e6305f5e1009361015393546101a0565b6101a0565b049051908152f35b634e487b7160e01b815260118552602490fd5b634e487b7160e01b825260118652602482fd5b80fd5b8490346100845781600319360112610084576020906002548152f35b818102929181159184041417156101b357565b634e487b7160e01b600052601160045260246000fdfea26469706673582212209239d5b5d02086906929b05e8faa5441120c6c0dd9d639502eca0aa9b4fb03ac64736f6c6343000818003360e0604052346200044c5762001eed803803806200001d8162000451565b928339810160c0828203126200044c5781516001600160401b03908181116200044c57826200004e9185016200048d565b9160209081850151908382116200044c576200006c9186016200048d565b916040850151926200008160608701620004ff565b9460a06200009260808901620004ff565b9701516001600160a01b03811692908390036200044c5782156200041a57600080546001600160a01b0319168417815560405193817f8be0079c531659141344cd1fd0a4f28419497f9722a3daafe3b4186f6b6457e08180a3600193846003558715620003e857508251858111620003d4578454938585811c95168015620003c9575b88861014620003b5578190601f9586811162000362575b508890868311600114620002fe578492620002f2575b5050600019600383901b1c191690851b1784555b8151948511620002de576002548481811c91168015620002d3575b87821014620002bf5783811162000276575b50859285116001146200020d57939450849291908362000201575b50501b916000199060031b1c1916176002555b60805260a05260c0526040516119df90816200050e8239608051818181610e1a01528181610f4d0152611940015260a051818181610f140152611457015260c05181818161119b015261123b0152f35b0151925038806200019e565b6002815285812093958591601f198316915b888383106200025b575050501062000241575b505050811b01600255620001b1565b015160001960f88460031b161c1916905538808062000232565b8587015188559096019594850194879350908101906200021f565b600282528682208480880160051c820192898910620002b5575b0160051c019085905b828110620002a957505062000183565b83815501859062000299565b9250819262000290565b634e487b7160e01b82526022600452602482fd5b90607f169062000171565b634e487b7160e01b81526041600452602490fd5b01519050388062000142565b8785528985208894509190601f198416865b8c8282106200034b575050841162000331575b505050811b01845562000156565b015160001960f88460031b161c1916905538808062000323565b8385015186558b9790950194938401930162000310565b9091508684528884208680850160051c8201928b8610620003ab575b918991869594930160051c01915b8281106200039c5750506200012c565b8681558594508991016200038c565b925081926200037e565b634e487b7160e01b83526022600452602483fd5b94607f169462000115565b634e487b7160e01b82526041600452602482fd5b62461bcd60e51b815260048101879052600d60248201526c4455524154494f4e5f5a45524f60981b6044820152606490fd5b60405162461bcd60e51b815260048101869052600a6024820152694f574e45525f5a45524f60b01b6044820152606490fd5b600080fd5b6040519190601f01601f191682016001600160401b038111838210176200047757604052565b634e487b7160e01b600052604160045260246000fd5b919080601f840112156200044c5782516001600160401b0381116200047757602090620004c3601f8201601f1916830162000451565b928184528282870101116200044c5760005b818110620004eb57508260009394955001015290565b8581018301518482018401528201620004d5565b519081151582036200044c5756fe608080604052600436101561001357600080fd5b60e0600035811c91826306fdde031461156857508163081812fc14611534578163095ea7b31461147c5781630c0b8fa11461143f57816311dc94471461142157816323b872dd146111c057816342c3b159146111835781634c77e1cb14610eaa57816351cff8d914610e3d5781636062ce0b14610e025781636352211e14610dd25781636c3752e814610d3057816370a0823114610cbc57816378d2de4a14610c1857816382afd23b14610b6d5781638b17f9c514610b445781638da5cb5b14610b1b57816395d89b4114610a38578163a22cb465146109aa578163b260c42a1461093d578163bc60c31d146108c5578163bf6362e014610892578163c363296614610808578163c87b56dd14610755578163d251bf8d1461067f578163e985e9c514610629578163eaee43ae146101fe575063f2fde38b1461015557600080fd5b346101f95760203660031901126101f95761016e611771565b6000546001600160a01b038082169261018833851461181b565b169182156101c75782907f8be0079c531659141344cd1fd0a4f28419497f9722a3daafe3b4186f6b6457e0600080a36001600160a01b03191617600055005b60405162461bcd60e51b815260206004820152600a6024820152694f574e45525f5a45524f60b01b6044820152606490fd5b600080fd5b346101f95760c03660031901126101f95760449060649067ffffffffffffffff60a435116101f95736602360a4350112156101f95767ffffffffffffffff60a43560040135116101f95736602460a4356004013560a4350101116101f95761027160018060a01b0360005416331461181b565b600435156105fa578235156105c957813515610599576084351561056457600435600052600560205260406000206002810154908115908115610555575b501561051f5760405191820182811067ffffffffffffffff8211176105095760405260243582528335602083015260408201528135606082015260843560808201526040519061030f6020601f19601f60a435600401350116018361166a565b60a43560048101358084529060240160208401376000602060a435600401358401015260a08101918252600160c0820152600435600052600560205260406000209181518355602082015160018401556040820151600284015560608201516003840155608082015160048401555180519067ffffffffffffffff82116105095761039d6005850154611613565b601f81116104c2575b50602090601f831160011461044b57928260069360c0936103f99796600092610440575b50508160011b916000199060031b1c19161760058501555b0151151591019060ff801983541691151516179055565b60405191602435835235602083015235604082015260843560608201527f6ea9055464719b3980ebeb0d3e45d999d10cee28dfc05e5f4fee03277001a883608060043592a2005b0151905089806103ca565b90601f198316916005860160005260206000209260005b8181106104aa57509360c0936103f99796936001938360069810610491575b505050811b0160058501556103e2565b015160001960f88460031b161c19169055898080610481565b92936020600181928786015181550195019301610462565b600585016000526020600020601f840160051c810160208510610502575b601f830160051c820181106104f65750506103a6565b600081556001016104e0565b50806104e0565b634e487b7160e01b600052604160045260246000fd5b60405162461bcd60e51b815260206004820152601060248201526f535550504c595f494d4d555441424c4560801b818601528390fd5b600101548535149050856102af565b50906e4455524142494c4954595f5a45524f60881b6040519162461bcd60e51b835260206004840152600f6024840152820152fd5b509069504f5745525f5a45524f60b01b6040519162461bcd60e51b835260206004840152600a6024840152820152fd5b50906a535550504c595f5a45524f60a81b6040519162461bcd60e51b835260206004840152600b6024840152820152fd5b509068545950455f5a45524f60b81b6040519162461bcd60e51b83526020600484015260096024840152820152fd5b346101f95760403660031901126101f957610642611771565b61064a611787565b9060018060a01b03809116600052600a60205260406000209116600052602052602060ff604060002054166040519015158152f35b346101f95760403660031901126101f9576004356024356106ab60018060a01b036004541633146118b2565b816000526006602052604060002090600582019081549080821061072357810390811161070d577fb3f5058dc0ffafdacef4cf7bbd48d4b3636ab70fbdd54331e773f153a9c3ca569281604093556007429101558151908152426020820152a2005b634e487b7160e01b600052601160045260246000fd5b60405162461bcd60e51b815260206004820152600a6024820152694455524142494c49545960b01b6044820152606490fd5b346101f957602090816003193601126101f957600435600052600682526107d76040600020604051926107878461164d565b8154845260076001830154928387870152600281015460408701526003810154606087015260048101546080870152600581015460a0870152600681015460c08701520154908401521515611853565b51600052600581526107ef600560406000200161168c565b90610804604051928284938452830190611731565b0390f35b346101f95760203660031901126101f9576004356000526005602052604060002090815490610886600184015493600281015492600382015460048301549060ff60066108576005870161168c565b9501541695604051988998895260208901526040880152606087015260808601528060a0860152840190611731565b90151560c08301520390f35b346101f95760203660031901126101f9576108b860018060a01b036004541633146118b2565b6108c36004356118e9565b005b346101f95760203660031901126101f9576101009060043560005260066020526040600020805491600182015491600281015460038201546004830154906005840154926007600686015495015496604051988952602089015260408801526060870152608086015260a085015260c0840152820152f35b346101f95760203660031901126101f95760043561095a8161188c565b336001600160a01b0390911603610974576108c3906118e9565b60405162461bcd60e51b815260206004820152600e60248201526d2727aa2faa27a7a62fa7aba722a960911b6044820152606490fd5b346101f95760403660031901126101f9576109c3611771565b602435801515908181036101f957610a0a9033600052600a60205260406000209360018060a01b0316938460005260205260406000209060ff801983541691151516179055565b6040519081527f17307eab39ab6107e8899845ad3d59bd9653f200f220920489ca2b5937696c3160203392a3005b346101f95760003660031901126101f957604051600254600082610a5b83611613565b9182825260209360019085600182169182600014610afb575050600114610a9e575b50610a8a9250038361166a565b610804604051928284938452830190611731565b84915060026000527f405787fa12a823e0f2b7631cc41b3ba8828b3321ca811111fa75cd3aa3bb5ace906000915b858310610ae3575050610a8a935082010185610a7d565b80548389018501528794508693909201918101610acc565b60ff191685820152610a8a95151560051b8501019250879150610a7d9050565b346101f95760003660031901126101f9576000546040516001600160a01b039091168152602090f35b346101f95760003660031901126101f9576004546040516001600160a01b039091168152602090f35b346101f95760203660031901126101f957602090600435600052600682526040600020604051610b9c8161164d565b815481526001820154848201526002820154908160408201526003830154938460608301526004840154608083015260076005850154948560a0850152600681015460c0850152015491015215159182610c0d575b5081610c03575b506040519015158152f35b9050151582610bf8565b421115915083610bf1565b346101f95760203660031901126101f957610c31611771565b6000546001600160a01b039190610c4b908316331461181b565b168015610c8b57600480546001600160a01b031916821790557fa8ed10b2206050f9f388dcf296e5fba3c3ede264d5202249d669bf09b75a92b9600080a2005b60405162461bcd60e51b8152602060048201526009602482015268434f52455f5a45524f60b81b6044820152606490fd5b346101f95760203660031901126101f9576001600160a01b03610cdd611771565b168015610cfc5760005260086020526020604060002054604051908152f35b60405162461bcd60e51b815260206004820152600c60248201526b4143434f554e545f5a45524f60a01b6044820152606490fd5b346101f95760603660031901126101f957600435610d5960018060a01b036004541633146118b2565b8060005260066020526040600020600681019081546001810180821161070d576005604093827f7b7c7f4689dfeb573b8ef01360c53a25575d71a84b3468eaef5558fa5d4a0c17965560048101610db3602435825461180e565b905501610dc3604435825461180e565b905582519182526020820152a2005b346101f95760203660031901126101f9576020610df060043561188c565b6040516001600160a01b039091168152f35b346101f95760003660031901126101f95760206040517f00000000000000000000000000000000000000000000000000000000000000008152f35b346101f95760203660031901126101f9576004356001600160a01b03818116918290036101f9576000808093610e788294835416331461181b565b610e838115156117d8565b4790828215610ea1575bf115610e9557005b6040513d6000823e3d90fd5b506108fc610e8d565b602090816003193601126101f95760043590816000526005835260406000209060ff6006830154161561114d57600282019182546001938483015482101561111d57825434036110f05784820180921161070d575560035493600019851461070d578484016003557f00000000000000000000000000000000000000000000000000000000000000009081156110e357866007878742975b86156110db57610f727f00000000000000000000000000000000000000000000000000000000000000004261180e565b975b888a6004600384015493015493600660405199610f908b61164d565b8b8b52808b019242845260408c0194855260608c0195865260808c0196875260a08c0197885260c08c019889528b019860008a5260005252604060002098518955518d890155516002880155516003870155516004860155516005850155516006840155519101556110033315156117d8565b85600052600787526040600020336001600160601b0360a01b8254161790553360005260088752604060002090815495860180961161070d57869586925560405190823360007fddf252ad1be2c89b69c2b068fc378daa952ba7f163c4a11628f55a4df523b3ef8180a481527f0e221cb5f52eb7cda77e73cd702490ce6acb291507f2d839c30fcfb3693d14cd883392a36110a4575b505050604051908152f35b7fb2289a07390e308381cb04471addc4a027266f53a464eaae224393aa43aa567691604091825191825286820152a2808380611099565b600097610f74565b8660078787600097610f42565b60405162461bcd60e51b8152600481018890526005602482015264505249434560d81b6044820152606490fd5b60405162461bcd60e51b815260048101889052600860248201526714d3d31117d3d55560c21b6044820152606490fd5b60405162461bcd60e51b815260048101859052600e60248201526d1516541157d393d517d193d5539160921b6044820152606490fd5b346101f95760003660031901126101f95760206040517f000000000000000000000000000000000000000000000000000000000000000015158152f35b346101f95760603660031901126101f9576111d9611771565b906111e2611787565b604435926001600160a01b03918291826111fb8761188c565b168033148015611408575b80156113e2575b611217915061179d565b826112218761188c565b911693849116036113b75716916112398315156117d8565b7f0000000000000000000000000000000000000000000000000000000000000000156112f9575b5082600052600960205260406000206001600160601b0360a01b908181541690558160005260086020526040600020805490600019820191821161070d575582600052600860205260406000208054906001820180921161070d5755836000526007602052826040600020918254161790557fddf252ad1be2c89b69c2b068fc378daa952ba7f163c4a11628f55a4df523b3ef600080a4005b836000526006602052604060002090604051906113158261164d565b825482526001830154602083015260028301546040830152600760038401549384606085015260048101546080850152600581015460a0850152600681015460c0850152015491015280159081156113ac575b50156113745783611260565b60405162461bcd60e51b815260206004820152601060248201526f22ac2824a922a22faa2920a729a322a960811b6044820152606490fd5b905042111584611368565b606460405162461bcd60e51b815260206004820152600460248201526346524f4d60e01b6044820152fd5b50600052600a60205260406000203360005260205261121760ff6040600020541661120d565b5086600052600960205233846040600020541614611206565b346101f95760003660031901126101f9576020600354604051908152f35b346101f95760003660031901126101f95760206040517f000000000000000000000000000000000000000000000000000000000000000015158152f35b346101f95760403660031901126101f957611495611771565b602435906114a28261188c565b6001600160a01b0390811690338214801561150b575b6114c19061179d565b8360005260096020526040600020921691826001600160601b0360a01b8254161790557f8c5be1e5ebec7d5bd14f71427d1e84f3dd0314c0f7b2291e5b200ac8c7c3b925600080a4005b5081600052600a6020526040600020336000526020526114c160ff6040600020541690506114b8565b346101f95760203660031901126101f9576004356000526009602052602060018060a01b0360406000205416604051908152f35b346101f95760003660031901126101f95760006001826001549261158b84611613565b9283835260209485600182169182600014610afb5750506001146115b65750610a8a9250038361166a565b84915060016000527fb10e2d527612073b26eecdfd717e6a320cf44b4afac2b0732d9fcbe2b7fa0cf6906000915b8583106115fb575050610a8a935082010185610a7d565b805483890185015287945086939092019181016115e4565b90600182811c92168015611643575b602083101461162d57565b634e487b7160e01b600052602260045260246000fd5b91607f1691611622565b610100810190811067ffffffffffffffff82111761050957604052565b90601f8019910116810190811067ffffffffffffffff82111761050957604052565b9060405191826000825461169f81611613565b9081845260209460019160018116908160001461170f57506001146116d0575b5050506116ce9250038361166a565b565b600090815285812095935091905b8183106116f75750506116ce93508201013880806116bf565b855488840185015294850194879450918301916116de565b925050506116ce94925060ff191682840152151560051b8201013880806116bf565b919082519283825260005b84811061175d575050826000602080949584010152601f8019910116010190565b60208183018101518483018201520161173c565b600435906001600160a01b03821682036101f957565b602435906001600160a01b03821682036101f957565b156117a457565b60405162461bcd60e51b815260206004820152600c60248201526b1393d517d054141493d5915160a21b6044820152606490fd5b156117df57565b60405162461bcd60e51b8152602060048201526007602482015266544f5f5a45524f60c81b6044820152606490fd5b9190820180921161070d57565b1561182257565b60405162461bcd60e51b81526020600482015260096024820152682727aa2fa7aba722a960b91b6044820152606490fd5b1561185a57565b60405162461bcd60e51b815260206004820152600a6024820152691393d517d3525395115160b21b6044820152606490fd5b6000908152600760205260409020546001600160a01b03166118af811515611853565b90565b156118b957565b60405162461bcd60e51b81526020600482015260086024820152674e4f545f434f524560c01b6044820152606490fd5b806000526006602052604060002061190660018201541515611853565b600281019081546119785760036040917fb2289a07390e308381cb04471addc4a027266f53a464eaae224393aa43aa5676934290556119657f00000000000000000000000000000000000000000000000000000000000000004261180e565b91829101558151904282526020820152a2565b60405162461bcd60e51b81526020600482015260096024820152681050d512559055115160ba1b6044820152606490fdfea2646970667358221220347b7a1831e4ff7f4c2a2b4514ef69e49ff78443dc6756f9b5e684f52057932f64736f6c63430008180033a2646970667358221220e9d080aa0186b58228801fdf9bb3e8987bc2ac602347b06ac949287241285c6f64736f6c634300081800336080346200016d5762001cbe90601f38839003908101601f19168201906001600160401b038211838310176200017257808391604095869485528339810103126200016d576200005d6020620000558362000188565b920162000188565b6001600160a01b039182169182156200013c57600080546001600160a01b03191684178155845193909290837f8be0079c531659141344cd1fd0a4f28419497f9722a3daafe3b4186f6b6457e08180a360018055169182156200010957508082849252600360205220600160ff198254161790557faa29e9c7319872059973646686bcb05675a1351529119ca980b4ad90e73d72646020835160018152a251611b2090816200019e8239f35b62461bcd60e51b815260206004820152600e60248201526d5245474953545241525f5a45524f60901b6044820152606490fd5b835162461bcd60e51b815260206004820152600a6024820152694f574e45525f5a45524f60b01b6044820152606490fd5b600080fd5b634e487b7160e01b600052604160045260246000fd5b51906001600160a01b03821682036200016d5756fe608080604052600436101561001357600080fd5b60003560e01c908163153c51c91461178f575080636380a6b81461162357806367274b2b1461121c57806371780c5f146111dc57806387f7b0de14610b915780638cf29bc0146107565780638da5cb5b1461072d578063a2f77bcc14610521578063a9c6b3fa146104e2578063ad0ec5ab14610470578063b135bbb014610452578063c1bf1dcf14610383578063dfe21bbf14610357578063e2ea03c21461016d5763f2fde38b146100c457600080fd5b34610168576020366003190112610168576100dd61183a565b6000546001600160a01b03808216926100f73385146119da565b169182156101365782907f8be0079c531659141344cd1fd0a4f28419497f9722a3daafe3b4186f6b6457e0600080a36001600160a01b03191617600055005b60405162461bcd60e51b815260206004820152600a6024820152694f574e45525f5a45524f60b01b6044820152606490fd5b600080fd5b34610168576060366003190112610168576004356024356005811015610168576001600160401b03604435818111610168576101ad9036906004016117b7565b90916101c460018060a01b036000541633146119da565b84600052602090600282526101e360ff600a6040600020015416611aad565b85600052600282526101fc856008604060002001611a95565b8560005260028252600960406000200190831161034157610227836102218354611850565b83611a12565b6000601f84116001146102af5792604061029f93610292969361028484807f6e97602de1703935fd4a4d924cfee7a322c11dd0369aa3db10fad03493fee9249b996000916102a4575b508160011b916000199060031b1c19161790565b90555b815196878097611987565b8501526040840191611a68565b0390a2005b90508701358d610270565b601f1984169082600052836000209160005b81811061032a575093610292969386936040937f6e97602de1703935fd4a4d924cfee7a322c11dd0369aa3db10fad03493fee9249a9861029f9810610310575b5050600184811b019055610287565b860135600019600387901b60f8161c191690558a80610301565b91928560018192868b0135815501940192016102c1565b634e487b7160e01b600052604160045260246000fd5b346101685760203660031901126101685760043560005260056020526020604060002054604051908152f35b346101685760403660031901126101685761039c61183a565b6024359081151590818303610168576000546001600160a01b0391906103c590831633146119da565b1691821561041c577faa29e9c7319872059973646686bcb05675a1351529119ca980b4ad90e73d726491610413602092856000526003845260406000209060ff801983541691151516179055565b604051908152a2005b60405162461bcd60e51b815260206004820152600e60248201526d5245474953545241525f5a45524f60901b6044820152606490fd5b34610168576000366003190112610168576020600154604051908152f35b34610168576020366003190112610168576004358060005260026020526104a160ff600a6040600020015416611aad565b600052600560205260406000205460076020526104c160406000206118e2565b906104de60405192839283526040602084015260408301906117e4565b0390f35b34610168576020366003190112610168576001600160a01b0361050361183a565b166000526003602052602060ff604060002054166040519015158152f35b34610168576020366003190112610168576004356000610140604051610546816118a5565b8281528260208201528260408201528260608201528260808201528260a08201528260c0820152606060e082015282610100820152606061012082015201528060005260026020526105a260ff600a6040600020015416611aad565b6000526002602052604060002060ff600a604051926105c0846118a5565b8054845260018101546001600160a01b0390811660208601526002820154811660408601526003820154811660608601526004820154811660808601526005820154811660a086015260068201541660c0850152610620600782016118e2565b60e0850152610639836008830154166101008601611a89565b610645600982016118e2565b61012085015201541615156101408201526040518091602082528051602083015260018060a01b03602082015116604083015260018060a01b03604082015116606083015260018060a01b03606082015116608083015260018060a01b0360808201511660a083015260018060a01b0360a08201511660c083015260018060a01b0360c08201511660e083015260e08101516101406107206106f661016093846101008801526101808701906117e4565b61070a610100860151610120880190611987565b610120850151868203601f1901848801526117e4565b9201511515908301520390f35b34610168576000366003190112610168576000546040516001600160a01b039091168152602090f35b34610168576060366003190112610168576044356001600160401b038111610168576107869036906004016117b7565b90600435600052600260205260406000206040516107a3816118a5565b8154815260018201546001600160a01b03908116602083019081526002840154821660408401526003840154821660608401526004840154821660808401526005840154821660a0840152600684015490911660c083015291610808600782016118e2565b60e083015260ff6008820154169161082561010093848301611a89565b60ff600a610835600985016118e2565b936101209485850152015416906101408091019115158252602435600052600260205260ff600a60406000206040519561086e876118a5565b8154875260018201546001600160a01b03908116602089019081526002840154821660408a01526003840154821660608a01526004840154821660808a01526005840154821660a08a0152600684015490911660c0890152976108eb906108d7600785016118e2565b60e08a015285600885015416908901611a89565b6108f7600983016118e2565b90870152015416920191151582525115610b56575115610b1d5781516001600160a01b03163303610ae9575190516001600160a01b03918216911603610ab05760243560043514610a7f5760043560005260056020526024356040600020556024356000526006602052600435604060002055600435600052600760205260406000206001600160401b03831161034157610996836102218354611850565b600083601f8111600114610a1857806109c492600091610a0d57508160011b916000199060031b1c19161790565b90555b60405191602083527f5c0de152febd27dfe12fd4d4b141a3578afcb1f3949954fb2de451a3cc088306339380610a0860243595600435956020840191611a68565b0390a4005b905084013586610270565b50601f19841690826000528460206000209260005b818110610a64575010610a4a575b5050600183811b0190556109c7565b830135600019600386901b60f8161c191690558380610a3b565b86840135855560019094019360209384019388935001610a2d565b60405162461bcd60e51b815260206004820152600960248201526853414d455f47414d4560b81b6044820152606490fd5b60405162461bcd60e51b815260206004820152601160248201527009ea08aa482a89ea4be9a92a69a82a8869607b1b6044820152606490fd5b60405162461bcd60e51b815260206004820152600c60248201526b2727aa2fa7a822a920aa27a960a11b6044820152606490fd5b60405162461bcd60e51b81526020600482015260116024820152701513d7d1d0535157d393d517d193d55391607a1b6044820152606490fd5b60405162461bcd60e51b8152602060048201526013602482015272119493d357d1d0535157d393d517d193d55391606a1b6044820152606490fd5b346101685760c036600319011261016857610baa61183a565b610bb2611824565b60449182356001600160a01b03811681036101685760649081356001600160a01b038116810361016857608435916001600160a01b03831683036101685760a4356001600160401b03811161016857610c0f9036906004016117b7565b94909733600052600360205260ff60406000205416156111ab576001600160a01b0387161561117a576001600160a01b0388161561114d576001600160a01b03831615611120576001600160a01b038416156110ef576001600160a01b038516156110c15750506001549560001987146110ab576001870160015560405197610c97896118a5565b8789526001600160a01b0387811660208b01523360408b015282811660608b015283811660808b015284811660a08b0152851660c08a0152610cda368783611994565b60e08a015260006101008a01526040518060208101106001600160401b036020830111176103415760208101604052600081526101208a015260016101408a0152876000526002602052604060002093895185556001850160018060a01b0360208c015116906bffffffffffffffffffffffff60a01b91828254161790556002860160018060a01b0360408d015116828254161790556003860160018060a01b0360608d015116828254161790556004860160018060a01b0360808d015116828254161790556005860160018060a01b0360a08d01511682825416179055600686019060018060a01b0360c08d0151169082541617905560e08a01518051906001600160401b03821161034157610e0182610df860078a0154611850565b60078a01611a12565b602090601f831160011461103d57610e32929160009183611032575b50508160011b916000199060031b1c19161790565b60078601555b6101008a0151600581101561101c57610e549060088701611a95565b6101208a01519485519a6001600160401b038c11610341578b8b97610e8b60209e610e826009870154611850565b60098701611a12565b8d90601f8311600114610f5f57610140610f49979694610eed85610f0a967f3b3a6584e251ae4f202e5a9365351ae17330c23414daf13a5b777c2feeccb51e9e9f9996600a96600092610f545750508160011b916000199060031b1c19161790565b60098501555b0151151591019060ff801983541691151516179055565b604080516001600160a01b0396871681529686168d880152908516908601528316606085015260a0608085018190523398909316968493840191611a68565b0390a4604051908152f35b015190503880610e1d565b999493929190600984016000528e6000209a60005b601f1984168110610fed5750610f0a936001847f3b3a6584e251ae4f202e5a9365351ae17330c23414daf13a5b777c2feeccb51e9d9e600a9561014095610f499d9c9b9a98601f19811610610fd4575b505050811b016009850155610ef3565b015160001960f88460031b161c19169055388080610fc4565b929496989a5090929496989a8f600181928685015181550194019201908e9a98969492919b999795939b610f74565b634e487b7160e01b600052602160045260246000fd5b015190508d80610e1d565b90601f198316916007890160005260206000209260005b818110611093575090846001959493921061107a575b505050811b016007860155610e38565b015160001960f88460031b161c191690558c808061106a565b92936020600181928786015181550195019301611054565b634e487b7160e01b600052601160045260246000fd5b695641554c545f5a45524f60b01b6040519162461bcd60e51b835260206004840152600a6024840152820152fd5b6c5245534f555243455f5a45524f60981b6040519162461bcd60e51b835260206004840152600d6024840152820152fd5b68434f52455f5a45524f60b81b6040519162461bcd60e51b83526020600484015260096024840152820152fd5b68544f4f4c5f5a45524f60b81b6040519162461bcd60e51b83526020600484015260096024840152820152fd5b6c4f50455241544f525f5a45524f60981b6040519162461bcd60e51b835260206004840152600d6024840152820152fd5b6c2727aa2fa922a3a4a9aa2920a960991b6040519162461bcd60e51b835260206004840152600d6024840152820152fd5b346101685760203660031901126101685760043560005260076020526104de61120860406000206118e2565b6040519182916020835260208301906117e4565b34610168576080366003190112610168576004356001600160401b0381116101685761124c9036906004016117b7565b90611255611824565b906044356001600160401b038111610168576112759036906004016117b7565b9390926064359384151585036101685761129a60018060a01b036000541633146119da565b82156115ee576001600160a01b038216156115ba576112ba368486611994565b6020815191012095604051966112cf8861188a565b6112da368688611994565b88526001600160a01b03841660208901526112f6368385611994565b6040890152861515606089015260016080890152600052600460205260406000209680518051906001600160401b0382116103415761133f826113398c54611850565b8c611a12565b602090601f831160011461154e5761136f9291600091836115435750508160011b916000199060031b1c19161790565b88555b6001880160018060a01b036020830151166bffffffffffffffffffffffff60a01b82541617905560408101519788516001600160401b038111610341576113c9816113c06002850154611850565b60028501611a12565b6020601f82116001146114a85761148695949392611426836080946003947fa9e273faf6d827dc8864ac6940b58710d00466acf842875ef4aff43538fbb9719e9f60009261149d5750508160011b916000199060031b1c19161790565b60028201555b019161144a60608201511515849060ff801983541691151516179055565b0151151561ff0082549160081b169061ff001916179055611478604051968796606088526060880191611a68565b918583036020870152611a68565b94151560408301526001600160a01b0316930390a2005b015190508f80610e1d565b6002830160005260206000209a60005b601f198416811061152b5750926001837fa9e273faf6d827dc8864ac6940b58710d00466acf842875ef4aff43538fbb9719c9d6003946114869a999897608097601f19811610611513575b505050811b01600282015561142c565b015160001983871b60f8161c191690558e8080611503565b828201518d556001909c019b602092830192016114b8565b015190508b80610e1d565b91908a6000526020600020906000935b601f198416851061159f576001945083601f19811610611586575b505050811b018855611372565b015160001960f88460031b161c191690558a8080611579565b8181015183556020948501946001909301929091019061155e565b60405162461bcd60e51b815260206004820152600c60248201526b464143544f52595f5a45524f60a01b6044820152606490fd5b60405162461bcd60e51b815260206004820152600d60248201526c56455253494f4e5f454d50545960981b6044820152606490fd5b3461016857602080600319360112610168576004356001600160401b038111610168576116576116869136906004016117b7565b600060806040516116678161188a565b6060815282878201526060604082015282606082015201523691611994565b818151910120600052600481526040600020604051906116a58261188a565b6116ae816118e2565b825260018101546001600160a01b0390811684840190815290919060036116d7600284016118e2565b9260408601938452015491606085019360ff84161515855260ff608087019460081c1615801585526117565790611741929161172760a098604051998a99828b5251918a015260c08901906117e4565b925116604087015251858203601f190160608701526117e4565b91511515608084015251151560a08301520390f35b60405162461bcd60e51b8152600481018890526011602482015270149153115054d157d393d517d193d55391607a1b6044820152606490fd5b3461016857602036600319011261016857602090600435600052600682526040600020548152f35b9181601f84011215610168578235916001600160401b038311610168576020838186019501011161016857565b919082519283825260005b848110611810575050826000602080949584010152601f8019910116010190565b6020818301810151848301820152016117ef565b602435906001600160a01b038216820361016857565b600435906001600160a01b038216820361016857565b90600182811c92168015611880575b602083101461186a57565b634e487b7160e01b600052602260045260246000fd5b91607f169161185f565b60a081019081106001600160401b0382111761034157604052565b61016081019081106001600160401b0382111761034157604052565b90601f801991011681019081106001600160401b0382111761034157604052565b906040519182600082546118f581611850565b908184526020946001916001811690816000146119655750600114611926575b505050611924925003836118c1565b565b600090815285812095935091905b81831061194d5750506119249350820101388080611915565b85548884018501529485019487945091830191611934565b9250505061192494925060ff191682840152151560051b820101388080611915565b90600582101561101c5752565b9291926001600160401b03821161034157604051916119bd601f8201601f1916602001846118c1565b829481845281830111610168578281602093846000960137010152565b156119e157565b60405162461bcd60e51b81526020600482015260096024820152682727aa2fa7aba722a960b91b6044820152606490fd5b90601f8111611a2057505050565b6000916000526020600020906020601f850160051c83019410611a5e575b601f0160051c01915b828110611a5357505050565b818155600101611a47565b9092508290611a3e565b908060209392818452848401376000828201840152601f01601f1916010190565b600582101561101c5752565b90600581101561101c5760ff80198354169116179055565b15611ab457565b60405162461bcd60e51b815260206004820152600e60248201526d11d0535157d393d517d193d5539160921b6044820152606490fdfea2646970667358221220b867158c182dc3496524956aed08c254595cca1b3eb3692c97f56a931fe83f7564736f6c63430008180033",
  "linkReferences": {},
  "deployedLinkReferences": {}
}